:020000040800F2
:10000000400400209D010008290F00089B070008FC
:10001000250F0008D3030008311800080000000075
:1000200000000000000000000000000005150008AE
:10003000A704000800000000390F00081D16000882
:10004000B7010008B7010008B7010008B7010008B0
:10005000B7010008B7010008B7010008B7010008A0
:10006000B7010008B7010008B7010008B701000890
:10007000B7010008B7010008B7010008B701000880
:10008000B7010008B7010008B7010008B701000870
:10009000B7010008B7010008B7010008A90400086B
:1000A000B7010008B7010008B7010008B701000850
:1000B000B7010008B7010008B7010008B701000840
:1000C000B7010008B7010008B7010008B701000830
:1000D000B7010008B7010008B7010008B701000820
:1000E000B7010008B7010008B7010008B701000810
:1000F000B7010008B7010008B7010008B701000800
:10010000B7010008B7010008B7010008B7010008EF
:10011000B7010008B7010008B7010008B7010008DF
:10012000B7010008B7010008B7010008B7010008CF
:10013000B7010008B7010008B7010008B7010008BF
:10014000B7010008B7010008B7010008B7010008AF
:10015000B7010008B7010008B7010008B70100089F
:10016000B7010008B7010008B7010008B70100088F
:10017000B7010008B7010008B7010008B70100087F
:10018000B7010008B7010008DFF80CD000F052F802
:1001900000480047CD27000840040020064880475B
:1001A00006480047FEE7FEE7FEE7FEE7FEE7FEE75C
:1001B000FEE7FEE7FEE7FEE72116000889010008DA
:1001C00040EA01039B0703D009E008C9121F08C0D9
:1001D000042AFAD203E011F8013B00F8013B521E59
:1001E000F9D27047D2B201E000F8012B491EFBD2D0
:1001F00070470022F6E710B513460A460446194632
:10020000FFF7F0FF204610BD30B50B460146002039
:100210002022012409E021FA02F59D4205D303FAC8
:1002200002F5491B04FA02F52844151EA2F1010249
:10023000F1DC30BD064C074D06E0E06840F00103FC
:1002400094E8070098471034AC42F6D3FFF7A0FFBC
:10025000F04500081046000821B1826842F0010212
:10026000826003E0826822F0010282607047000031
:100270000021084A1168084A1140D0E900231A43B6
:1002800083681A43C3681A431143044AC2F804132B
:100290007047000004230140E030FCFF00200140D3
:1002A0000146C86C80B270470246002013680B40BC
:1002B0000BB1012000E000207047000030B502467D
:1002C000002000235068104C20400D790C6844EA4F
:1002D00005242043506090680C4C2040D1E9035421
:1002E0002C438D682C434D7944EA450420439060AB
:1002F000D06A20F470000C7D641EE4B2234340EA0F
:100300000350D06230BD0000FFFEFFFCFDF7FFC0D0
:10031000F0B504460D4600200021092D11DDE068EE
:10032000A5F10A0606EB4607072606FA07F18843F9
:10033000A5F10A0606EB460603FA06F10843E0605B
:100340000CE0206905EB4507072606FA07F188430C
:1003500005EB450603FA06F108432061072A0FDA88
:10036000606B561E06EB86071F2606FA07F18843C8
:10037000561E06EB860605FA06F10843606322E086
:100380000D2A0FDA206BD61F06EB86071F2606FA0A
:1003900007F18843D61F06EB860605FA06F10843E7
:1003A000206310E0E06AA2F10D0606EB86071F2627
:1003B00006FA07F18843A2F10D0606EB860605FA58
:1003C00006F10843E062F0BD816841F08041816040
:1003D000704700BFFEE770B50024082519E06410DF
:1003E000002001F029FD042001F0B4FC012001F0FF
:1003F00023FD082001F0AEFC01F016FD08B144F029
:1004000080043C2001F0A6FC012001F015FD681ECF
:10041000C5B2002DE3DC204670BD10B5002001F010
:100420000BFD4FF4F07001F095FC012001F004FD8C
:10043000502001F08FFC01F0F7FC04464FF4C87027
:1004400001F088FC204610BD70B50446082512E076
:10045000002001F0F1FC042001F07CFC04F001001C
:1004600001F0EAFC3C2001F075FC012001F0E4FC05
:100470006410681EC5B2002DEADC70BD10B5FFF730
:10048000CCFFCC20FFF7E0FF4E20FFF7DDFF202060
:10049000FFF7DAFF0020FFF7D7FF7F20FFF7D4FF39
:1004A000FFF7BBFF10BD704710B54FF4007000F0B0
:1004B0003BF8012806D11548006880474FF40070CA
:1004C00000F02CF84FF4807000F02EF8012806D1CF
:1004D0000F48006880474FF4807000F01FF88020BC
:1004E00000F022F8012805D10A48006880478020E2
:1004F00000F014F8402000F017F8012805D1064854
:1005000000688047402000F009F810BD100000206E
:1005100014000020180000201C0000200149086081
:1005200070470000143C014001460020034A126855
:100530000A400AB1012000E000207047143C01404D
:1005400051B18200A2F1C042126842F00103820060
:10055000A2F1C042136009E08200A2F1C042126819
:10056000034B1A408300A3F1C0431A607047000098
:10057000FEFF0F0030B50021002200230468A40014
:10058000A4F1C0442168424C2140D0E901452C43EC
:10059000C5682C4305692C4345692C4385692C4368
:1005A000C5692C43056A2C43456A2C43856A2C4354
:1005B000C56A2C43056B2C4321430468A400A4F1B5
:1005C000C04421608468082C0BD10468A400A4F105
:1005D000C044246844F040050468A400A4F1C04469
:1005E00025600468641CA400A4F1C044226802F0E1
:1005F0004042446B2468456B6D6844EA0514456BC2
:10060000AD6844EA0524456BAD8944EA0544456B71
:100610002D8A44EA0554456B2D7D44EA0564456BFB
:10062000AD692C4322430468641CA400A4F1C044B7
:100630002260C46AB4F5804F20D10468A400A4F1FC
:10064000C044D4F80431134C2340846B2468856B78
:100650006D6844EA0514856BAD6844EA0524856B32
:10066000AD8944EA0544856BAD692C432343046896
:10067000A400A4F1C044C4F8043107E06FF0704551
:100680000468A400A4F1C044C4F8045130BD0000C3
:100690008000F7FF0000F0CFF0B50A4600210023EC
:1006A000002400BF3DE0012505FA01F3156805EAC5
:1006B00003049C4234D105684F000326BE40B54375
:1006C000056015794E00B54006683543056015791B
:1006D000012D02D01579022D16D185684F00032611
:1006E000BE40B543856055794E00B54086683543B8
:1006F0008560456801268E40B5434560456896791A
:100700008E40B6B235434560C5684F000326BE40F3
:10071000B543C560D5794E00B540C6683543C56060
:10072000491C1029BFD3F0BDF0B5002300244D07AC
:10073000ED0E02FA05F3CE1000F1200555F8265013
:100740004E07F70E0F26BE40B543CF1000F120062E
:1007500046F82750CE1000F1200555F8265045EAFE
:100760000304CE1000F1200545F82640F0BD0246F6
:10077000002013690B400BB1012000E000207047FE
:100780000246002053690B400BB1012000E000201D
:100790007047418370470183704700BFFEE7000048
:1007A00030B5044600230025082C1CD2DFE804F0F5
:1007B0000406090C0F12151800BF14E043F0800363
:1007C00011E043F040030EE043F0C0030BE043F0C0
:1007D000200308E043F0600305E043F0A00302E0DB
:1007E00043F0E00300BF00BF362543F0080319467D
:1007F000284600F08FFB1348008869060880002017
:1008000011490880088011480088401EC0F30F205D
:1008100008800E480078401EC0B208800C4800884E
:100820006906088000200849088008800948008877
:10083000401EC0F30F20088006480078401EC0B25A
:10084000088030BD320000200020006C2A0000200B
:10085000340000202C00002070B50446002500263E
:10086000094800880949098800FB01F6002108466B
:1008700000F02CFB00F046FB00BF02E004480480BF
:100880006D1CB542FAD370BD2A0000202C00002058
:100890000020006C10B50E4B1B884FF0D84423800D
:1008A00003120C4C2380C3B223800B4B1B884FF0E8
:1008B000D84423800B12074C2380CBB22380074BF4
:1008C0001B884FF0D8442380024B1A8010BD0000D3
:1008D000320000200020006C340000202E00002098
:1008E0002DE9F84F81460E4617461C4600960C2C03
:1008F00001D198460AE0102C01D1A04606E0182C40
:1009000002D14FF0240801E0BDE8F88FA7F12000E4
:10091000C7B2002553E00C2C07D107EB47002A494A
:1009200001EB800010F805A012E0102C05D127483B
:1009300000EB071010F805A00AE0182C07D107EB10
:10094000C700234901EB800010F805A000E0DBE7B9
:100950004FF0000B2DE00AF0800030B11D480288F6
:1009600031464846FFF796FF05E01B4802883146AE
:100970004846FFF78FFF4FEA4A604FEA106A701C43
:1009800086B216480088864200DBBDE70098301A20
:10099000A0420AD1009E09F101001FFA80F9104817
:1009A0000088814500DBAFE706E00BF1010000F0B5
:1009B000FF0BBBF1080FCEDB00BF681CC5B245457D
:1009C000A9DB00BFA0E70000122E00088632000855
:1009D0007638000824000020260000202C0000208B
:1009E0002A000020F0B506460F4615461C4611E0C9
:1009F00022782B4639463046FFF772FF284605EB32
:100A0000D07106EB61018EB206480088864200DB99
:100A100006E0641C20787E2802DC20782028E7DAB3
:100A200000BFF0BD2A00002010B5044634B1012CEF
:100A300005D0022C04D0032C0BD102E000BF00BF74
:100A400000BFF020094908804FF4A07008490880D1
:100A500007E04FF4A07005490880F02004490880A1
:100A600000BF00BF2046FFF79BFE10BD2A000020FC
:100A70002C00002000B59FB00121782000F05EFA24
:100A80000121084600F06AFA08201D9001208DF827
:100A9000780000208DF87A0002208DF8790001207E
:100AA0008DF87B001DA97748FFF7F6FD4CF23370F7
:100AB0001D9002208DF8780000208DF87A00032028
:100AC0008DF8790001208DF87B001DA96D48FFF796
:100AD000E3FD4FF680701D9002208DF87800002015
:100AE0008DF87A0003208DF8790001208DF87B00C5
:100AF0001DA96548FFF7D0FD04201D9002208DF848
:100B0000780000208DF87A0003208DF8790001200C
:100B10008DF87B001DA95D48FFF7BEFD4FF48050A6
:100B20001D9002208DF8780000208DF87A000320B7
:100B30008DF8790001208DF87B001DA95348FFF73F
:100B4000ABFD0C2200214F48FFF7EEFD0C220121E6
:100B50004C48FFF7E9FD0C2204214A48FFF7E4FD69
:100B60000C2205214748FFF7DFFD0C2208214548EC
:100B7000FFF7DAFD0C2209214248FFF7D5FD0C22D0
:100B80000A214048FFF7D0FD0C220E213D48FFF717
:100B9000CBFD0C220F213B48FFF7C6FD0C2207219D
:100BA0003948FFF7C1FD0C2208213748FFF7BCFD8B
:100BB0000C2209213448FFF7B7FD0C220A213248E4
:100BC000FFF7B2FD0C220B212F48FFF7ADFD0C22E1
:100BD00011462D48FFF7A8FD0C220D212A48FFF7EA
:100BE000A3FD0C220E212848FFF79EFD0C220F21A9
:100BF0002548FFF799FD0C2202212448FFF794FDB8
:100C00000C2211462148FFF78FFD0F20079000208E
:100C100008903C20099000200A900B900C900D90B9
:100C200003200090002001900220029000200390F9
:100C300004900590069006200E9000200F901090D2
:100C4000102011900020129014901390159016907F
:100C50004FF480501790002018904FF48040199066
:100C600000201A9007A81B90CDF870D00EA8FFF7AF
:100C700081FC01210620FFF763FC322001F04EF8D1
:100C80001FB000BD000C02400010024000180240DE
:100C900010B5FFF7EFFED3204FF0D8410880884809
:100CA0000088884908808648008808808448008831
:100CB0000880084600884FF6FF7101EA002081494C
:100CC00008807F480088098808437E490880CF2033
:100CD0004FF0D8410880002079490880C120088061
:100CE00030200880ED204FF0D841088064207449FE
:100CF0000880032008801220088081200880E820D6
:100D00004FF0D841088085206D4908801020088068
:100D10007A200880CB204FF0D841088039206849DC
:100D200008802C20088000200880342008800220C1
:100D30000880F7204FF0D8410880202060490880C3
:100D4000EA204FF0D841088000205D4908800880E3
:100D5000C0204FF0D84108801B2059490880C1208D
:100D60004FF0D8410880012055490880C5204FF038
:100D7000D84108803020524908800880C7204FF0B1
:100D8000D8410880B7204E490880362041060880A7
:100D900048204B4908803A204FF0D8410880552020
:100DA00047490880B1204FF0D841088000204449CD
:100DB00008801A200880B620410608800A20404991
:100DC0000880A2200880F2204FF0D841088000203F
:100DD0003B49088026204FF0D8410880012038493F
:100DE0000880E0204FF0D84108800F203449088067
:100DF0002A20088028200880082008800E200880EB
:100E00000820088054200880A920088043200880FA
:100E10000A2008800F2008800020088008800880B1
:100E20000880E1204FF0D841088000202449088044
:100E300015200880172008800720088011200880CE
:100E4000062008802B200880562008803C2008803F
:100E500005200880102008800F2008803F2008808F
:100E600008800F2008802B204FF0D84108800020F8
:100E7000134908800880012008803F2008802A202C
:100E80004FF0D841088000200D4908800880088074
:100E9000EF20088011204FF0D8410880782000F022
:100EA0003DFF29204FF0D84108800020FFF7BCFD0E
:100EB0000120054908604FF6FF70FFF7CDFC10BD1B
:100EC0000020006C280000208C8241420A4A1288CF
:100ED0004FF0D8431A800212084B1A80C2B21A800F
:100EE000074A12884FF0D8431A800A12034B1A801F
:100EF000CAB21A8070470000320000200020006C47
:100F000034000020024800884FF0D8410880704724
:100F10002E0000204FF0D8421080014A1180704707
:100F20000020006C00BFFEE7704700000149086226
:100F30007047000000000E427047000029B1064AC9
:100F400012680243044B1A6004E0034A12688243A9
:100F5000014B1A60704700003038024029B1064A40
:100F600012680243044B1A6004E0034A1268824389
:100F7000014B1A60704700003838024029B1064A18
:100F800012680243044B1A6004E0034A1268824369
:100F9000014B1A607047000044380240F0B5002150
:100FA00000220024022500260223324F3F6807F06A
:100FB0000C0121B1042905D0082937D105E02E4FB5
:100FC000076036E02D4F076033E02A4F3F1F3F6830
:100FD000C7F38056274F3F1F3F6807F03F036EB1AE
:100FE000264FB7FBF3F7DFF88CC0ACF1040CDCF84C
:100FF00000C0CCF3881C07FB0CF40CE01E4FB7FBC1
:10100000F3F7DFF870C0ACF1040CDCF800C0CCF3EF
:10101000881C07FB0CF4174F3F1F3F68C7F30147BD
:101020007F1C7D00B4FBF5F7076002E0124F0760FC
:1010300000BF00BF0F4F3F6807F0F0010909104FD4
:101040007A5C0768D74047600A4F3F6807F4E05171
:10105000890A0B4F7A5C4768D7408760054F3F6825
:1010600007F46041490B064F7A5C4768D740C76078
:10107000F0BD0000083802400024F40000127A009D
:101080000000002010B501460022002300204A1174
:10109000012A02D10A4C236808E0022A03D1084C35
:1010A0007034236802E0064C7434236801F01F0298
:1010B000012494401C400CB1012000E0002010BD30
:1010C000003802400021094A11701170012802D035
:1010D000042808D103E00121044A117004E005212D
:1010E000024A117000E000BF00BF70477038024034
:1010F00001490860704700003C0E4742002100F49F
:101100004072B2F5407F08D1094A116821F4F81104
:10111000084A02401143064A1160054A68321268C3
:10112000C0F30B031A43024B68331A607047000088
:1011300008380240FFFCFF0F014600BF080900EB22
:101140008000420001F00F001044C0B27047014619
:10115000002204E0501CC2B2A1F10A00C1B20A2967
:10116000F8DA100741EA10607047000008B5002265
:10117000009200200021104A126802F04002CAB911
:10118000421E0D4B1A6000BF0B4A126802F040016C
:10119000009A521C0092009AB2F5803F01D00029BB
:1011A000F2D0054A126802F040020AB1012002E0C2
:1011B000002000E0012008BD0C2800400348006822
:1011C00020F0800001490860704700000C280040B2
:1011D00070B506460C4600250E4800680E4900EA28
:1011E0000105280CE070C5F30420607005F03F0095
:1011F000A070C5F3423020705EB9E078FFF79CFF25
:10120000E0706078FFF798FF6070A078FFF794FFB8
:10121000A07070BD042800403FFFFF0070B5064677
:101220000C4600250F4800680F4900EA0105C5F388
:1012300005402070C5F30620607005F07F00A070A7
:1012400005F48000000CE0705EB92078FFF774FFB1
:1012500020706078FFF770FF6070A078FFF76CFF78
:10126000A07070BD002800407F7F7F0030B504462D
:101270000025CA201549086053200860FFF776FF53
:1012800000B91DE011481C38006820F040000F49EB
:101290001C39086008460068216808430B491C395E
:1012A00008600A491439A068086008460068A188E7
:1012B00040EA0140054914390860FFF77FFF012526
:1012C000FF2002490860284630BD00002428004065
:1012D00008B501460020009004480090009800EBFB
:1012E000810000900098006808BD00005028004070
:1012F0002DE9F04105460C46002600274DB96078DF
:1013000000F01000102804D1607820F010000A309E
:10131000607005B908E06078FFF70EFF0646A07818
:10132000FFF70AFF064600BF55B1E0780004617878
:1013300040EA0120A1780843217840EA413611E0D3
:10134000E078FFF704FF4FEA00486078FFF7FFFE00
:1013500048EA0028A078FFF7FAFE48EA000820785B
:1013600048EA4036CA201249086053200860FFF757
:10137000FDFE08B9002714E00E4830400C49203922
:101380000860FFF71BFF0A481C38006800F02000C7
:1013900030B900F079F808B9002702E0012700E031
:1013A0000127FF20024908603846BDE8F0810000AF
:1013B000242800403FFFFF002DE9F04105460C4680
:1013C000002600274DB92E48006800F0400000B10B
:1013D00002E00020E07000BF0DE02948006800F046
:1013E000400020B12078FFF7A7FE064602E000206B
:1013F000E07000BF00BF55B120780004617840EA7A
:101400000120A1780843E17840EA014611E0207804
:10141000FFF79DFE4FEA00486078FFF798FE48EA24
:101420000028A078FFF793FE48EA0008E07848EA31
:101430000046CA2012491C31086053200860FFF79B
:1014400095FE08B9002713E00E4830400C490839D2
:101450000860FFF7B3FE0A48006800F0200030B9CA
:1014600000F012F808B9002702E0012700E0012788
:10147000FF2003491C3108603846BDE8F0810000B8
:10148000082800407F7F7F0008B5002200920020DE
:101490000021CA22134B1A6053221A60114A183ACB
:1014A000126822F0A0020F4B183B1A6000BF0D4AD1
:1014B000183A126802F02001009A521C0092009A19
:1014C000B2F5003F01D00029F1D0064A183A12685F
:1014D00002F020020AB1012000E00020FF22014BAF
:1014E0001A6008BD2428004008B500220092044A72
:1014F0000092009A02EB80020092009A116008BDEF
:1015000050280040704700000CB50020019000906A
:101510003448006840F480303249086000BF3148E8
:10152000006800F4003000900198401C0190009881
:1015300018B90198B0F5A04FF1D12A48006800F41D
:10154000003010B10120009001E0002000900098D0
:10155000012846D123484030006840F0805021499E
:10156000403108602048006840F440401E4908604F
:101570001C48083000681B490831086008460068AC
:1015800040F4004008600846006840F4A05008603D
:101590001648091F0860081F006840F08070091F86
:1015A000086000BF0F48006800F000700028F9D004
:1015B00040F205700E4908600A480830006820F0C3
:1015C00003000849083108600846006840F002003E
:1015D000086000BF03480830006800F00C000828CD
:1015E000F8D10CBD0038024000700040085440079C
:1015F000003C0240042808D14FF0E021096941F085
:1016000004014FF0E022116107E04FF0E021096989
:1016100021F004014FF0E022116170477047000093
:1016200010B51548006840F470001349086013486D
:10163000006840F001001149086000200F4908319E
:1016400008600E4800680E4908400C4908600D48C3
:10165000091D0860081F006820F48020091F086029
:10166000002006490C310860FFF74EFF4FF0006084
:1016700001498039086010BD88ED00E00038024063
:10168000FFFFF6FE1030002421B1828942F400529F
:10169000828104E082894DF6FF731A40828170478F
:1016A00002460020B1F5007F00D100BF13880B4037
:1016B0000BB1012000E00020704700002DE9FF473A
:1016C00005460E460024A14600BFA046B08900B1E1
:1016D00000BF2C8A24F44054F08804432C82AC8947
:1016E00041F20C608443B088318908437189084312
:1016F0000443AC81AC8A24F44074B0890443AC82C6
:101700006846FFF74BFC2048854202D01F488542BF
:1017100002D1DDF80C9001E0DDF80890A88900F412
:10172000004040B109EBC90000EB091031684900E5
:10173000B0FBF1F707E009EBC90000EB09103168D5
:101740008900B0FBF1F76420B7FBF0F00401200939
:10175000642101FB1078A88900F4004040B13220D8
:1017600000EBC800B0FBF1F000F00700044308E014
:10177000322000EB08106421B0FBF1F000F00F0004
:1017800004432C81BDE8FF87001001400014014094
:10179000C1F308028280704700B587B00121084676
:1017A000FFF7CCFB01211020FFF7E8FB00208DF8AC
:1017B0001A0001208DF81B0002208DF819008DF809
:1017C00018000002059005A91748FEF765FF0220E2
:1017D0008DF818004002059005A91348FEF75CFF3C
:1017E00007220A211048FEF79FFF072209210E4811
:1017F000FEF79AFF4FF4E13001900020ADF80800A9
:10180000ADF80A00ADF80C00ADF810000C20ADF8F2
:101810000E0001A90548FFF751FF01210348FFF71A
:1018200033FF07B000BD000000000240001001407F
:1018300000BFFEE70FB4054B10B503A9044A029898
:1018400000F02CF810BC5DF814FB0000591E0008D5
:10185000380000200FB4084B10B504A902AA039861
:1018600000F01CF8044602A9002000F0B8F9204658
:1018700010BC5DF814FB0000DF1B000802E008C884
:10188000121F08C1002AFAD170477047002001E0FA
:1018900001C1121F002AFBD1704700002DE9FF4F44
:1018A0008BB088460546002606E025280BD0DDE9EA
:1018B0000D1290476D1C761C28780028F5D10FB0CA
:1018C0003046BDE8F08F0024A146A2460122AE4971
:1018D00000E0044315F8013F203B02FA03F0084200
:1018E000F7D128782A2810D06FF02F022878A0F19D
:1018F0003001092915D809EB890102EB410144F0B7
:10190000020400EB01096D1CF0E758F8041B5FEAC4
:10191000010903D544F40054C9F1000944F002045C
:101920006D1C28782E2817D115F8010F44F00404F7
:101930002A280ED06FF02F022878A0F13001092953
:101940000AD80AEB8A0102EB410100EB010A6D1C87
:10195000F2E758F804AB6D1C28786C280FD006DC31
:101960004C2817D068280DD06A2814D104E07428B8
:1019700010D07A280FD10DE044F400140AE044F4AA
:10198000801401E044F440146978814202D104F5E6
:1019900080146D1C6D1C2878692865D006DC002831
:1019A0008DD0632827D0642806D15DE06E2808D04A
:1019B00073282AD0752877D0DDE90D129047761C60
:1019C000E0E0C4F30250022809D003280DD0D8F873
:1019D000001004280DD00E6008F10408D2E0D8F8F9
:1019E0000010F217C1E90062F6E7D8F800100E8087
:1019F000F2E70E70F0E718F8041B8DF800100020D5
:101A00008DF80100EB46012003E058F804BB4FF0CD
:101A1000FF3061074FF0000701D40AE07F1C5745F3
:101A20000DDA8742FADB1BF807100029F6D106E031
:101A30007F1C8742FCDB1BF807100029F8D1DDE989
:101A40000D23A9EB07008146214600F0B1F8304490
:101A5000C61904E0DDE90D121BF8010B90477F1E4B
:101A6000F8D22146484688E058F8040BC4F30251E6
:101A70004FF00A0B032900D100B2042900D140B273
:101A8000002802DA40422D2102E0210505D52B2154
:101A90008DF82410012104E006E0E10710D0202198
:101AA000F6E708AF089113E058F8040BC4F30251AD
:101AB0004FF00A0B032900D180B2042900D1C0B233
:101AC0000021EEE75946FEF79FFB303107F8011D74
:101AD0000028F7D1ADEB070000F1200B600702D51D
:101AE00024F4803401E04FF0010ADA4502DDAAEB6C
:101AF0000B0000E00020824600EB0B010898014437
:101B0000A9EB01000A90E00306D4DDE90D2321468C
:101B10000A9800F04DF806444FF0000908E009A9C2
:101B200011F80900DDE90D12904709F10109761C51
:101B300008998945F3DBE0030CD5DDE90D23214647
:101B40000A9800F035F8064404E0DDE90D12302073
:101B50009047761CBAF10001AAF1010AF5DC05E014
:101B6000DDE90D1217F8010B9047761CBBF100015F
:101B7000ABF1010BF4DC0A982146DDE90D2300F0FE
:101B800005F806446D1C97E6092801002DE9F0418F
:101B9000044600251E461746880404D405E039464D
:101BA0002020B0476D1C641EF9D52846BDE8F081A1
:101BB0002DE9F041044600251E469046C80301D594
:101BC000302700E02027880404D505E04146384648
:101BD000B0476D1C641EF9D52846BDE8F0810A683F
:101BE000531C0B601070704700B58DB001210420AC
:101BF000FFF7A4F901210802FFF7C0F903208DF8CF
:101C0000300000208DF8320001200B9000208DF86C
:101C1000330002208DF831000BA91648FEF73CFD79
:101C20000020099007904FF4403008904FF4706006
:101C30000A9007A8FEF71CFB00208DF8090005900C
:101C4000049003900A208DF81800002001908DF870
:101C5000080001A90848FEF731FB072301220A21E9
:101C60000548FEF755FB01210348FEF7F5FA0DB0D4
:101C700000BD0000000802400020014010B50248ED
:101C8000FEF7A2FB10BD00000020014010B500BF10
:101C900002210348FEF708FB0028F9D010BD000020
:101CA000002001401CB501213020FFF747F900203A
:101CB0008DF804004FF46070009000208DF807004C
:101CC00069460548FEF7E8FC402000906946034855
:101CD000FEF7E2FC1CBD00000014024000100240B0
:101CE0001CB501210820FFF729F901208DF8040017
:101CF00000208DF806008020009000208DF807005D
:101D000002208DF8050069460348FEF7C5FC8021D6
:101D10000148FEF73EFD1CBD000C024070B50446B4
:101D20004FF4077094FBF0F0C6B24FF4077094FBC9
:101D3000F0F100FB114085B205E04FF4077000F0B0
:101D40002FF8701EC6B2002EF7D115B1284600F04C
:101D500027F870BD0146114A12784A434FF0E0233C
:101D60005A6100229A611A46126942F001021A6110
:101D700000BF4FF0E022106900F001021AB100F438
:101D80008032002AF5D04FF0E022126922F00102E1
:101D90004FF0E0231A6100229A6170472000002072
:101DA0000146114A12884A434FF0E0235A6100224B
:101DB0009A611A46126942F001021A6100BF4FF09F
:101DC000E022106900F001021AB100F48032002A0A
:101DD000F5D04FF0E022126922F001024FF0E0232B
:101DE0001A6100229A6170472200002010B501217B
:101DF0000846FFF7A3F810BD10B500F0BDFD01487F
:101E0000006810BD1002404210B5044600F0C4FD49
:101E1000012C03D101200349086002E000200149A0
:101E2000086010BD9002404210B500F0CBFD0148A3
:101E3000006810BD3C82404210B5044600F0D8FD59
:101E4000012C03D101200349086002E00020014970
:101E5000086010BDBC82404270B504460D46E1B238
:101E60000548FFF795FC00BF80210348FFF718FCE9
:101E70000028F9D0204670BD0010014010B502487E
:101E8000FEF70EFA10BD00000020014070B50446B8
:101E9000002534B1012C0BD0022C10D0032C1AD108
:101EA00013E04FF400710F48FEF761FC054612E0A5
:101EB0004FF480710B48FEF75AFC05460BE0802179
:101EC0000848FEF754FC054605E040210648FEF7A9
:101ED0004EFC054600BF00BF0DB9012070BD0020BB
:101EE000FCE70000001402400010024010B5802101
:101EF0000148FEF745FC10BD000C02402DE9F04101
:101F000007464FF000080025002400260120FFF7B7
:101F10007BFF0020FFF778FF1420FFF7FFFE012072
:101F2000FFF772FF00BFFFF767FF80466D1C0220BE
:101F3000FFF710FFB8F1000F01D0142DF3DB142DC3
:101F400001D1BDE8F08100BFFFF756FF0028FBD0AC
:101F5000002423E000BFFFF74FFF0028FBD100BFA4
:101F6000FFF74AFF0028FBD02820FFF7F3FE70069A
:101F7000060EFFF741FF08B146F00106601CC117CD
:101F800000EB5171C910A0EBC10131B92046E11736
:101F900004EB5171C9107E540026641C282CD9DB37
:101FA0000120FFF731FF00BFCBE7000070B5054609
:101FB00025B1012D09D0022D13D10CE04FF4007191
:101FC0000948FEF7DDFB04460BE010210748FEF749
:101FD000D7FB044605E008210448FEF7D1FB044680
:101FE00000BF00BF204670BD001802400010024034
:101FF00010B500200C4908604FF48C70FFF7AAFE62
:10200000FFF73CFEFFF742FEFFF738FF04462820AB
:10201000FFF7A0FE01200549C1F8B40242F2D050FA
:10202000FFF798FE204610BDB40241420000414235
:1020300070B5054625B1012D08D0022D12D10BE057
:1020400040210A48FEF79CFB04460BE0802107482C
:10205000FEF796FB044605E080210548FEF790FB5D
:10206000044600BF00BF204670BD000000040240CF
:102070000018024038B50546FEF7CFF9CC20FEF730
:10208000E3F94420FEF7E0F9FEF7C7F9CC20FEF7AC
:10209000DBF9BE20FEF7D8F9002404E0FEF79BF937
:1020A0000DF80400641C022CF8DBFEF7B6F9694653
:1020B000284600F0F3FC3220FFF74CFE38BD1CB57B
:1020C000044601A90020FFF783F869460020FFF7C6
:1020D000A5F89DF8070020609DF8050060609DF858
:1020E0000600A0609DF80400E0609DF800002061FB
:1020F0009DF8010060619DF80200A0611CBD000018
:1021000030B5ADB0F2A1F9A0FFF794FB202125A8CE
:10211000FEF76FF800201B901C901D9019901A90EC
:10212000142114A8FEF765F8002414210FA8FEF767
:1021300060F84FF6E070EE4908800020ED49088015
:1021400008460088FEF788FBEBA310220021084612
:10215000FEF748FC4FF4FC60E54908801EA8FFF735
:10216000AEFF21A80DC82499CDE90123CDE90310C4
:1021700020980090E8A125A8DDE91E23FFF76AFB5F
:1021800025AB102240F22F110020FEF72BFC1BA8DC
:10219000FFF770FFECA3102211460020FEF722FC8F
:1021A0001BAB102211466020FEF71CFC1BA9EAA005
:1021B000FFF740FB19A8FFF7A1FE9DF86420EAA1F4
:1021C00014A8FFF747FB14AB102220210020FEF7D4
:1021D00009FC14A9C5A0FFF72DFBFFF709FF044672
:1021E0002246E4A10FA8FFF735FB0FAB10223021E8
:1021F0000020FEF7F7FB0FA9BCA0FFF71BFB012097
:1022000000F0C6FA0020FFF7D1FE0C900120FFF786
:10221000CDFE0D900220FFF7C9FE0E90D9A0FFF76A
:1022200009FB0C9808B1DFA000E0DFA00146DFA0A9
:10223000FFF700FB0D9808B1DAA000E0DAA0014634
:10224000DDA0FFF7F7FA0E9808B1D6A000E0D6A0FF
:102250000146DCA0FFF7EEFADDA3102240210020AA
:10226000FEF7C0FBDCA3102240213020FEF7BAFBB2
:102270000C9808B1CBA000E0CBA00346102240216F
:102280000846FEF7AFFBD5A3102240216020FEF7E1
:10229000A9FB0D9808B1C3A000E0C3A0034610221B
:1022A00040217020FEF79EFBCDA3102240219020FC
:1022B000FEF798FB0E9808B1BAA000E0BAA003465A
:1022C00010224021A020FEF78DFB0020FFF7B0FE7A
:1022D00009900120FFF7ACFE0A900220FFF7A8FE4C
:1022E0000B90012000F0FCFABEA0FFF7A3FA0998BA
:1022F00008B9ACA000E0ACA00146C2A0FFF79AFA72
:102300000A9808B9A7A000E0A7A00146C1A0FFF75E
:1023100091FA0B9808B9A3A000E0A3A00146C1A0C0
:10232000FFF788FAC3A3102250210020FEF75AFBC2
:10233000A9A3102250214020FEF754FB099808B1B0
:1023400098A000E098A00346102250210846FEF70E
:1023500049FBA2A3102250217020FEF743FB0A98EC
:1023600008B190A000E090A00346102250218020E8
:10237000FEF738FB9AA310225021A020FEF732FB73
:102380000B9808B187A000E087A0034610225021D7
:10239000B020FEF727FBA9A0FFF74CFAFFF7A6FD38
:1023A00008B980A000E080A005462946ABA0FFF751
:1023B00041FAAEA3102260210020FEF713FBFFF7C5
:1023C00095FD08B977A000E077A005462B461022BE
:1023D00060214020FEF706FBA6A0FFF72BFA0020A5
:1023E000FFF754FD05900120FFF750FD06900220F5
:1023F000FFF74CFD07900320FFF748FD0890059874
:1024000008B1A6A000E0A7A00146A9A0FFF712FA14
:10241000069808B1A1A000E0A2A00146A8A0FFF77D
:1024200009FA079808B19DA000E09EA00146A8A067
:10243000FFF700FA089808B198A000E099A00146BB
:10244000A7A0FFF7F7F9AAA3102270210020FEF73A
:10245000C9FAAAA3102270214820FEF7C3FA0598F2
:1024600008B1A7A000E0A7A00346102270216020B9
:10247000FEF7B8FAA4A3102270210846FEF7B2FABC
:10248000069808B19EA000E09EA00346102270218D
:102490008820FEF7A7FA9DA3102270219820FEF74E
:1024A000A1FA079808B196A000E096A00346102272
:1024B0007021B020FEF796FA95A310227021C0205B
:1024C000FEF790FA089808B18DA025E122E10000FE
:1024D0002D2D2D2D2D426F6172642053656E736F0B
:1024E0007220446174612D2D2D2D2D0025730A005D
:1024F00024000020260000202D53544D3332463452
:1025000030375A4754362044657620426F617264F2
:1025100020546573742D000054696D653A3230257E
:102520003032642D253032642D2530326420253040
:1025300032643A253032643A2530326420576B3A9F
:10254000253032640000000054656D70657261745E
:102550007572653A0000000054656D7065726174B3
:102560007572653A25730A0048756D6964697479F6
:102570003A256400504D322E352056616C75653A0F
:10258000256400002D2D2D2D2D426F617264204C8D
:10259000656473205374617475732D2D2D2D2D0A70
:1025A000000000004F4646004F4E00006C6564304E
:1025B00020203A25730A00006C65643120203A25FA
:1025C000730A00006C65643220203A25730A00000B
:1025D0004C6564733A000000303A0000313A000064
:1025E000323A00002D2D2D2D2D426F617264205244
:1025F000656C6179205374617475732D2D2D2D2DAB
:102600000A00000072656C61793020203A25730A57
:102610000000000072656C61793120203A25730A50
:102620000000000072656C61793220203A25730A3F
:102630000000000052656C6179733A002D2D2D2D3C
:102640002D426F6172642042757A7A6572205374EC
:10265000617475732D2D2D2D2D0A000062757A7A07
:10266000657220203A25730A0000000042757A7ACC
:1026700065723A002D2D2D2D2D426F61726420421E
:102680007574746F6E205072657373204465746541
:1026900063742D2D2D2D2D0A0000000044657465F6
:1026A00063740000556E6465746563740000000017
:1026B000627574746F6E3020203A25730A00000032
:1026C000627574746F6E3120203A25730A00000021
:1026D000627574746F6E3220203A25730A00000010
:1026E000627574746F6E3320203A25730A000000FF
:1026F000427574746F6E733A0000000042303A0005
:10270000310000003000000042313A0042323A000D
:1027100042333A00AFF21400034610227021D82051
:10272000FEF760F94FF47A70FFF7F8FA4FF47A7019
:10273000FFF7F4FA2DB030BD1CB501215020FEF793
:10274000FDFB01208DF8040000208DF80600182004
:10275000009000208DF8070002208DF805006946E2
:102760000948FDF799FF18210748FEF714F84FF4C0
:102770000070009069460548FDF78EFF4FF4007128
:102780000248FEF708F81CBD001002400018024085
:1027900010B5044624B1012C08D0022C10D10AE057
:1027A0004FF400710748FDF7F4FF09E010210648D7
:1027B000FDF7EFFF04E008210348FDF7EAFF00BF43
:1027C00000BF10BD001802400010024088B01C225B
:1027D000114901A8FDF7F4FCFFF7AEFF00F044F942
:1027E000FDF74CFE01A800F095F8FFF7FFFAFFF7A0
:1027F000FBF900F025F800F041F8FEF7CDFFFFF7F8
:102800006FFAFFF74FFAFEF743FA04A0FFF712F84A
:1028100001E0FFF775FCFCE7D445000853544D3345
:1028200032463430375A47543620446576656C6FEB
:102830007020426F61726420546573740A00000056
:102840001CB5FFF7D1F901208DF8040000208DF8A8
:1028500006004FF40050009000208DF80700022081
:102860008DF8050069460348FDF716FF012002496F
:1028700008601CBD00080240B40241421CB50121A1
:102880004220FEF75BFB01208DF8040000208DF84C
:102890000600C020009000208DF8070002208DF86F
:1028A000050069460948FDF7F7FE00200849086061
:1028B0000849C1F89C028020009069460648FDF74F
:1028C000EBFE0020054908601CBD0000000402402A
:1028D0009882404200804042001802409C024342DD
:1028E00020B1012806D002280DD108E00121074AB5
:1028F000116008E00121054A121D116003E0012169
:10290000034A116000BF00BF704700009882404238
:102910009C0243423EB504460120FEF707FB0A2015
:10292000FEF7D6FC49F22751884220D00120FEF75D
:10293000C9FB00BF4120FEF7A5FB0028FAD04FF4E9
:102940008070FEF7DBFB0120FEF7D2FB7F200190B9
:1029500000200090FF2002906846FEF787FC20468A
:1029600000F062F849F227510A20FEF7BDFD002071
:10297000FEF7DCFA3EBD00001CB500208DF8040017
:102980001020009000208DF8070069460148FDF7EF
:1029900083FE1CBD000002401CB501208DF8040020
:1029A00000208DF806001020009000208DF8070010
:1029B00002208DF8050069460148FDF76DFE1CBD3B
:1029C000000002401CB501210220FEF7B7FA0020EA
:1029D0008DF804004FF40040009000208DF80700AF
:1029E00069460248FDF758FE1CBD00000004024085
:1029F0001CB501210220FEF7A1FA01208DF8040088
:102A000000208DF806004FF40040009000208DF863
:102A1000070002208DF8050069460248FDF73CFEDC
:102A20001CBD0000000402401CB5044620788DF84F
:102A3000070020798DF80500207A8DF80600207BAC
:102A40008DF80400207C8DF80000207D8DF80100B9
:102A5000207E8DF8020001A90020FEF749FC69469E
:102A60000020FEF7A9FC1CBD10B56FF00400FEF7B6
:102A7000C1FD1520074908700846007800EB4001A9
:102A8000C1EBC0104FF6FF7101EAC0000249088097
:102A900010BD00002000002022000020F0B54A7880
:102AA00002F0F802F82A11D10D7845B90D78ED43FE
:102AB0006D1C0D704D78ED436D1C4D7006E00D786A
:102AC000ED436D1C0D704D78ED434D704D782D0725
:102AD0002A0E0D782C112243642592FBF5F5303532
:102AE0000570642592FBF5F605FB16250A2695FB75
:102AF000F6F530354570642592FBF5F605FB162595
:102B00000A2695FBF6F706FB1755303585702E25FE
:102B1000C5700D7805F00F050D700D7840F2712627
:102B200015FB06F5ABB24FF47A7593FBF5F530352E
:102B300005714FF47A7593FBF5F605FB163564269F
:102B400095FBF6F5303545714FF47A7593FBF5F644
:102B500005FB1635642695FBF6F706FB17550A2686
:102B600095FBF6F5303585714FF47A7593FBF5F6E4
:102B700005FB1635642695FBF6F706FB17550A2666
:102B800095FBF6F706FB17553035C5710025057224
:102B9000F0BD000000000000000000000000000088
:102BA0000000000000000020000000380000003F8E
:102BB000C000001FF800001FF80000306000002077
:102BC00060000020400000204000182040001FFF4F
:102BD000FFFE1FFFFFFE1FFFFFF00860C000004068
:102BE000C0000040C0000040C00000C0C00000FFA6
:102BF000800000FF800000FE8000007000000020C8
:102C000000000000000000000000000000000000C4
:102C100000000000000000000000000000000000B4
:102C200000000000000000000000038003F003FF2C
:102C3000FFF003FFFFF00200042002000420022046
:102C40000420022104200221046002230C60067F7C
:102C5000FC60047FFC60047F0C400462084004C2F6
:102C6000C84004C2E8400C40F8400C0078400C001A
:102C700008400FFFFFF80FFFFFFC07FFFFFC0600F7
:102C800000F0000000000000000000000000000054
:102C90000000000000000000000000000000000034
:102CA0007000020FE000020E4020020840380208C7
:102CB000C0F802107FE006F07F0007904000060099
:102CC000C0000200C0000000C01C0000FFFC0800A3
:102CD000BF9807FFC03007F8A0200449902004499E
:102CE000884004D98C000C9916000C91738008015F
:102CF00061C0000301C0000300C0000300C0000069
:102D000000400000004000000040000000400000C3
:102D100000000000000000004000000080000001F2
:102D2000000000020000000C00000038003000FF2E
:102D3000FFF803C7FE001F8000000E1000000418FB
:102D40000080001801C00018078001100D80019359
:102D500089800113C9001FF249001F14F9001934BA
:102D6000FFFE02349100026C930003EF930003A670
:102D70001200012402000020020000600200006036
:102D80000200002000000020000000000000000001
:102D9000000000006000600000001F802040204014
:102DA0002040204020C0118000000000300048007A
:102DB0003000000003F00E18080C1004100410047A
:102DC0001004080C0C380000000000000000000097
:102DD0001C00002200002200001C00000000000077
:102DE0000E0000FFC001E1E00300300600180600FD
:102DF000180400080C00080C00080400180600184D
:102E00000600380380700180E00080800000000030
:102E100000000000000000000000000000000000B2
:102E200000003F40000000000000000030004000B3
:102E300030004000000009000BC03D000BC03D0009
:102E4000090018C024407FE02240318000001800B3
:102E500024C01B000D803240018003801C402740AD
:102E60001C800740004010006000000000000000CF
:102E700000000000000000001F80204040200000F3
:102E8000402020401F8000000000090006001F8035
:102E9000060009000000040004003F800400040054
:102EA00000000010006000000000000000000400AE
:102EB00004000400040004000000000000400000C2
:102EC000000000000000002001C0060038004000A3
:102ED00000001F802040204020401F800000000094
:102EE00010403FC000400000000018C021402240B8
:102EF00024401840000010802040244024401B80C3
:102F0000000002000D0011003FC0014000003C80A5
:102F1000244024402440238000001F80244024407B
:102F20003440038000003000200027C0380020001B
:102F300000001B802440244024401B8000001C0013
:102F400022C0224022401F800000000000000840F4
:102F5000000000000000000000000460000000000D
:102F60000000000004000A00110020804040090019
:102F7000090009000900090000000000404020800D
:102F800011000A000400180020002340240018004B
:102F900000001F802040274029401F4000000040C3
:102FA00007C039000F0001C0004020403FC024404E
:102FB00024401B8000001F802040204020403080A3
:102FC000000020403FC0204020401F8000002040E3
:102FD0003FC024402E4030C0000020403FC024406D
:102FE0002E00300000000F0010802040224033806F
:102FF000020020403FC0040004003FC020402040A9
:1030000020403FC0204020400000006020202020C1
:103010003FC02000200020403FC024400B0030C0B3
:10302000204020403FC020400040004000C03FC042
:103030003C0003C03C003FC0000020403FC00C40AB
:1030400023003FC020001F802040204020401F80E0
:10305000000020403FC024402400180000001F80D2
:103060002140214020E01FA0000020403FC024401C
:10307000260019C0004018C024402440224031805E
:103080000000300020403FC0204030000000200001
:103090003F80004000403F80200020003E0001C0F3
:1030A000070038002000380007C03C0007C0380087
:1030B0000000204039C0060039C020400000200038
:1030C000384007C0384020000000304021C0264072
:1030D000384020C00000000000007FE04020402079
:1030E0000000000070000C000380004000000000A1
:1030F000402040207FE00000000000002000400051
:10310000200000000000001000100010001000104F
:10311000001000000000400000000000000000005F
:1031200002800540054003C0004020003FC004402D
:103130000440038000000000038004400440064077
:10314000000000000380044024403FC00040000015
:1031500003800540054003400000000004401FC0FC
:10316000244024402000000002E005500550065095
:10317000042020403FC00440040003C00040000081
:10318000044027C0004000000000001000100410A0
:1031900027E00000000020403FC00140070004C0BD
:1031A0000440204020403FC000400040000007C0D5
:1031B000040007C0040003C00000044007C004402E
:1031C000040003C00040000003800440044003806A
:1031D0000000041007F004500440038000000000C9
:1031E00003800440045007F00010044007C0024070
:1031F000040004000000000006400540054004C033
:103200000000000004001F80044000400000040093
:1032100007800040044007C000400400070004C0CD
:10322000018006000400060001C0070001C006007E
:103230000000044006C0010006C004400000041065
:10324000071004E00180060004000000044005C0EF
:103250000640044000000000000004007BE0402025
:103260000000000000000000FFF00000000000006F
:1032700040207BE00400000000004000800040008F
:1032800020002000400000000000000000000000BE
:103290000000000000000000000000001FCC000C37
:1032A000000000000000000008003000600008007E
:1032B000300060000000022003FC1E20022003FCFE
:1032C0001E200220000000000E1811043FFF108491
:1032D0000C78000000000F0010840F3800C0077841
:1032E00018840078000000780F8410C411240E9810
:1032F00000E400840008080068007000000000007E
:1033000000000000000000000000000007E01818A6
:10331000200440020000000040022004181807E0CA
:103320000000000000000240024001800FF0018018
:103330000240024000000080008000800FF8008002
:103340000080008000000001000D000E0000000061
:10335000000000000000000000800080008000806D
:103360000080008000800000000C000C00000000C5
:10337000000000000000000000060018006001804E
:10338000060018002000000007F0080810041004D0
:10339000080807F000000000080408041FFC0004EF
:1033A00000040000000000000E0C10141024104453
:1033B00011840E0C000000000C18100411041104FC
:1033C00012880C700000000000E003200424082490
:1033D0001FFC0024000000001F9810841104110439
:1033E000108810700000000007F008881104110414
:1033F00018880070000000001C00100010FC130072
:103400001C001000000000000E38114410841084CD
:1034100011440E38000000000700088C10441044CE
:10342000088807F00000000000000000030C030CF7
:103430000000000000000000000000010106000084
:103440000000000000000000008001400220041085
:10345000080810040000022002200220022002209E
:1034600002200220000000001004080804100220BE
:1034700001400080000000000E001200100C106CD3
:1034800010800F00000003E00C1813E4142417C48C
:10349000082807D000000004003C03C41C4007407B
:1034A00000E4001C000410041FFC110411041104AA
:1034B0000E880070000003E00C18100410041004C3
:1034C00010081C10000010041FFC1004100410044D
:1034D000080807F0000010041FFC1104110417C4B1
:1034E00010040818000010041FFC1104110017C07C
:1034F00010000800000003E00C1810041004104431
:103500001C780040000010041FFC10840080008024
:1035100010841FFC10040000100410041FFC100491
:1035200010040000000000030001100110011FFE44
:1035300010001000000010041FFC1104038014642C
:10354000181C1004000010041FFC100400040004E8
:103550000004000C000010041FFC1F0000FC1F00F2
:103560001FFC1004000010041FFC0C04030000E00A
:1035700010181FFC100007F00808100410041004B5
:10358000080807F0000010041FFC10841080108051
:1035900010800F00000007F0081810241024101CE1
:1035A000080A07F2000010041FFC1104110011C0EA
:1035B00011300E0C000400000E1C11041084108445
:1035C00010441C3800001800100010041FFC1004E8
:1035D00010001800000010001FF810040004000480
:1035E00010041FF8100010001E0011E0001C0070F5
:1035F00013801C0010001FC0103C00E01F0000E002
:10360000103C1FC000001004180C163401C001C08B
:103610001634180C100410001C00130400FC1304D2
:103620001C00100000000804101C10641084130417
:103630001C04101800000000000000007FFE400283
:10364000400240020000000030000C0003800060D7
:10365000001C0003000000004002400240027FFE08
:1036600000000000000000000000200040004000BA
:1036700040002000000000010001000100010001E5
:103680000001000100010000400040002000000097
:1036900000000000000000000098012401440144E3
:1036A000014400FC000410001FFC00880104010418
:1036B0000088007000000000007000880104010410
:1036C000010400880000000000700088010401046B
:1036D00011081FFC0004000000F8014401440144EB
:1036E000014400C800000000010401040FFC1104A3
:1036F000110411001800000000D601290129012938
:1037000001C90106000010041FFC00840100010033
:10371000010400FC000400000104190419FC000469
:103720000004000000000000000300010101190175
:1037300019FE0000000010041FFC0024004001B42A
:10374000010C010400000000100410041FFC000420
:10375000000400000000010401FC0104010001FC60
:103760000104010000FC010401FC008401000100CF
:10377000010400FC0004000000F80104010401043D
:10378000010400F80000010101FF008501040104AB
:10379000008800700000000000700088010401042F
:1037A000010501FF00010104010401FC0084010482
:1037B000010001800000000000CC0124012401244C
:1037C00001240198000000000100010007F8010435
:1037D000010400000000010001F8000400040004DE
:1037E000010801FC0004010001800170000C0010C0
:1037F00001600180010001F0010C003001C00030C7
:10380000010C01F0010000000104018C0074017042
:10381000018C01040000010101810171000E0018FA
:1038200001600180010000000184010C01340144A9
:103830000184010C000000000000000000000100F5
:103840003EFC400240020000000000000000FFFFBC
:103850000000000000000000400240023EFC0100A9
:1038600000000000000000006000800080004000B8
:1038700040002000200000000000000000000000C8
:103880000000000000000000000000000000000038
:103890000000000000000000000000000000000028
:1038A0000000000000000000000F80380FFE380FFD
:1038B0008038000000000000000000000000000050
:1038C000000000000100000600000C0000380000AD
:1038D0003100000600000C0000380000300000003D
:1038E00000000000000061800067F807F9800061B7
:1038F000800061800061800061800067F807F980C6
:1039000000618000000000000000000001C0E00332
:10391000E0F00630080418081FFFFE040E080787B1
:10392000F00381E000000000000001F000060C0040
:10393000040408060C7001F9C0000E00003BE00012
:10394000EC18070808040C180003E0000000000150
:10395000E00007F003F818041C0804170807E1D07A
:1039600003C0E00023B0003C080020080000100065
:1039700000000000000100003100003200001C00C7
:103980000000000000000000000000000000000037
:103990000000000000000000000000000000000027
:1039A0000000000000007F0001FFC00780F00C0055
:1039B0001810000420000200000000000020000297
:1039C0001000040C00180780F001FFC0007F000009
:1039D00000000000000000000000000000000000E7
:1039E00000004200006600006600003C0000180075
:1039F00003FFC0001800003C0000660000660000E5
:103A00004200000000000800000800000800000854
:103A10000000080001FFC0000800000800000800C6
:103A20000008000008000000000000010000310054
:103A3000003200001C000000000000000000000038
:103A4000000000000000000000000000000008006E
:103A5000000800000800000800000800000800003E
:103A60000800000800000800000800000000000036
:103A7000000000000000380000380000380000009E
:103A80000000000000000000000000000000000036
:103A9000000000000000000600001C000070000193
:103AA00080000E0000380000C0000700001C00006D
:103AB000300000000000000000007F8001FFE003F4
:103AC000807006001804000804000806001803802F
:103AD0007001FFE0007F8000000000000000000097
:103AE00001000801000801000803FFF807FFF800C3
:103AF00000080000080000080000000000000000AE
:103B00000001C03802C058040098040118040218CB
:103B1000040418061C1803F81801E0F8000000005F
:103B2000000000000001C0E003C0F0040008040829
:103B30000804080806180803F41801E7F00001E07B
:103B4000000000000000000000000300000D000065
:103B5000110000610000810803010807FFF80FFF52
:103B6000F80001080001080000000000000000E06B
:103B700007FCD006080806100806100806100806FC
:103B80001838060FF00607C0000000000000000013
:103B900000003F8001FFE003843002081804100891
:103BA000041008041008071810030FF00007C000E5
:103BB000000000000000000003C000070000060035
:103BC000000600F80607F806180006E000070000E7
:103BD00006000000000000000001E1E003F7F0062D
:103BE0003410041808041808040C08040C080616FD
:103BF0001803F3F001C1E000000000000000F8002D
:103C000003FC300306380402080402080402080416
:103C100004100308F001FFC0007F00000000000056
:103C200000000000000000000000000000007038EC
:103C30000070380070380000000000000000000034
:103C40000000000000000000000000000000000074
:103C50000000301A00301C000000000000000000CE
:103C6000000000000000000000000000000800004C
:103C7000140000220000410000808001004002008A
:103C800020040010080008000000000000002100CF
:103C9000002100002100002100002100002100007F
:103CA0002100002100002100002100000000000090
:103CB000000000000800080400100200200100407D
:103CC0000080800041000022000014000008000075
:103CD000000000000003C00004C000040000080051
:103CE00038080F380808380810000C300007E000CA
:103CF00003C000000000000000003F8000FFE00360
:103D00008070020F1006708804C088048308047F46
:103D10008802C09003012000FE4000000800001847
:103D20000001F8003E0801C20007020007E200009F
:103D3000FE00001FC80001F8000038000008040061
:103D40000807FFF807FFF804080804080804080833
:103D500004080806180803F41801E7F00001E00061
:103D60000000000000003F8001FFE00380700200BF
:103D700018040008040008040008040010060020CD
:103D80000780C000000004000807FFF807FFF804E0
:103D90000008040008040008040018020010038052
:103DA0007001FFE0007F8000000004000807FFF8BA
:103DB00007FFF804080804080804080804080804B1
:103DC0003E0804000806001801006000000004001E
:103DD0000807FFF807FFF8040808040800040800B3
:103DE000040800043E0006000006000001800000F8
:103DF0000000000000003F8001FFE003807006002B
:103E0000180400080402080402080203F00783F003
:103E100000020000020004000807FFF807FFF80492
:103E20000808000800000800000800000800040856
:103E30000807FFF807FFF804000800000000000072
:103E400004000804000804000807FFF807FFF8044E
:103E50000008040008040008000000000000000042
:103E6000000000060000070000010400010400013A
:103E700004000307FFFE07FFFC0400000400000429
:103E8000000004000807FFF807FFF8040C080018FA
:103E900000003E0004C7800503C80600F80400388F
:103EA00004001800000804000807FFF807FFF804E2
:103EB00000080000080000080000080000080000DA
:103EC0000800001800006000000004000807FFF868
:103ED00007800807FC00007FC00003F80007C0004F
:103EE000780007800807FFF807FFF80400080400BF
:103EF0000807FFF807000803C00000E000003800D2
:103F0000001E000007000001C00400F007FFF804D5
:103F10000000000000007F8001FFE00380700600C9
:103F20001804000804000806001803003001FFE030
:103F3000007F8000000004000807FFF807FFF80476
:103F40000408040400040400040400040400060C33
:103F50000003F80001F000000000000000007F8076
:103F600001FFE00380700600880400880400C80692
:103F7000003C03003E01FFE6007F840000000400D7
:103F80000807FFF807FFF8040808040800040C00FD
:103F9000040F00040BC00610F003F03801E0080025
:103FA000000800000001E0F803F0300630100418AB
:103FB00008041808040C08040C080206180207F08C
:103FC0000781E000000001800006000004000004FA
:103FD000000004000807FFF807FFF80400080400C9
:103FE0000004000006000001800004000007FFE05C
:103FF00007FFF00400180000080000080000080097
:10400000000800000804001007FFE004000004009E
:104010000006000007E00007FE00041FE00001F8B2
:104020000000380001E0043E0007C0000600000464
:10403000000004000007E00007FFC0041FF80007AD
:10404000C007F80007FF80043FF80007C004F8002D
:104050000700000400000000000400080600180724
:10406000C07805F1C8003E00001F800463E80780A7
:10407000F806001804000800000004000006000014
:1040800007800007E008047C08001FF80007F8001C
:10409000180804E008070000060000040000000003
:1040A000000100080600380400F80403E8040F08C3
:1040B000047C0805F00807C0080700180400600029
:1040C00000000000000000000000000000000000F0
:1040D000003FFFFE2000022000022000022000021C
:1040E000200002000000000000000000080000079F
:1040F000000000C0000038000006000001C0000001
:104100003000000E00000100000000000000000070
:104110002000022000022000022000022000023FB6
:10412000FFFE000000000000000000000000000092
:104130000000000000000008000010000030000037
:104140002000003000001000000800000000000007
:10415000000000000100000100000100000100005B
:104160000100000100000100000100000100000149
:10417000000001000001000000000000000000201D
:1041800000002000001000001000000000000000EF
:10419000000000000000000000000000000000F02F
:1041A0000019F8001B180022080026080024080047
:1041B0002410003FF8001FF800000800001800005D
:1041C0000004000007FFF80FFFF0001818001008A7
:1041D000002008002008003018001FF0000FC00069
:1041E00000000000000007C0001FF0001830002091
:1041F00008002008002008003C08001C1000006097
:104200000000000000000000000007C0001FF000D8
:10421000381800200800200800200804101007FFAC
:10422000F80FFFF000001000000000000000000088
:104230000007C0001FF00012300022180022080002
:104240002208003208001E10000E200000000000AE
:104250000000200000200800200801FFF803FFF8FC
:10426000062008042008042008072000030000009E
:10427000000000000000000E000E6E001FF3003171
:10428000B10020B10020B1003191001F13002E1E9B
:1042900000200E00300000000004000807FFF80FA7
:1042A000FFF8001008002000002000002008003F58
:1042B000F8001FF8000008000000000000000000E7
:1042C000002008002008002008063FF8063FF800FC
:1042D00000080000080000080000000000000000C6
:1042E0000000000000000300000300200100200186
:1042F000002003063FFE063FFC0000000000000017
:10430000000000000004000807FFF80FFFF800019C
:1043100088000300002FC00038F800203800200873
:104320000000080000000000000000000400080475
:10433000000804000807FFF80FFFF800000800005D
:1043400008000008000000000000002008003FF8FE
:10435000003FF8001008002000003FF8003FF80080
:104360001008002000003FF8003FF800000800009F
:1043700000002008003FF8003FF80010080010007F
:10438000002000002008003FF8001FF8000008008F
:1043900000000000000007C0000FF00018300030DF
:1043A00008002008002008003008001830000FF036
:1043B0000007C0000000000000002001003FFF00D7
:1043C0003FFF0010110020090020080020080030E5
:1043D00038001FF0000FC00000000000000007C000
:1043E000001FF000381800200800200800200900F5
:1043F0001011001FFF003FFF00000100000000201F
:1044000008002008002008003FF8003FF8000808D6
:1044100000100800200800200000300000300000DC
:104420000000000000000000000C78001E1800339F
:10443000080023080021080021880021980030F09E
:104440000038600000000000000020000020000094
:10445000200000FFF003FFF80020080020080020E3
:1044600008000030000000000000000000002000F4
:10447000003FF0007FF8000018000008000008006E
:104480002010003FF8007FF0000010000000000046
:1044900000002000003000003C00003F800023F0BE
:1044A000000078000070002380003C000030000015
:1044B0002000002000003C00003FE00023F8000046
:1044C000E0002700003E00003FE00021F80001E08E
:1044D000003E00002000000000002008002008002E
:1044E0003838003E680027800003C8002CF80038E8
:1044F0003800201800200800000000000000200004
:10450000003003003C01003F830023EC00007000FA
:104510002380003C0000200000200000000000007C
:10452000000000000038080020380020F80023E8D0
:10453000002F88003E080038080020180000700096
:10454000000000000000000000000000000000006B
:10455000000008000014001FF7FC300006200002D5
:10456000000000000000000000000000000000004B
:104570000000000000000000FFFFFF00000000003E
:10458000000000000000000000000000000000002B
:104590002000023000061FF7FC0014000008000095
:1045A000000000000000000000000000000000000B
:1045B00000180000600000400000400000200000E3
:1045C0001000000800000400000400000C000010AF
:1045D0000000000013000000050000001B000000A8
:1045E0000300000011000000230000000000000094
:1045F00010460008000000203C0000007C18000865
:104600004C4600083C000020040400008C18000800
:104610000000000001020304010203040607080968
:10462000000000000000000000000000000000008A
:10463000000000000000FFFF0000000000002C0050
:0C4640002E002A002B00000000000000EB
:040000050800018965
:00000001FF
